{"contracts/Controller.sol":{"Controller":{"abi":[{"inputs":[],"stateMutability":"nonpayable","type":"constructor"},{"anonymous":false,"inputs":[{"indexed":false,"internalType":"uint256","name":"x","type":"uint256"},{"indexed":false,"internalType":"uint256","name":"y","type":"uint256"},{"indexed":false,"internalType":"uint256","name":"color","type":"uint256"}],"name":"PixelChanged","type":"event"},{"inputs":[],"name":"getAllPixels","outputs":[{"internalType":"uint8[256]","name":"","type":"uint8[256]"}],"stateMutability":"view","type":"function"},{"inputs":[{"internalType":"uint256","name":"x","type":"uint256"},{"internalType":"uint256","name":"y","type":"uint256"}],"name":"getPixel","outputs":[{"internalType":"uint256","name":"","type":"uint256"}],"stateMutability":"view","type":"function"},{"inputs":[{"internalType":"uint256","name":"","type":"uint256"}],"name":"pixels","outputs":[{"internalType":"uint8","name":"","type":"uint8"}],"stateMutability":"view","type":"function"},{"inputs":[{"internalType":"uint256","name":"x","type":"uint256"},{"internalType":"uint256","name":"y","type":"uint256"},{"internalType":"uint8","name":"color","type":"uint8"}],"name":"setPixel","outputs":[],"stateMutability":"nonpayable","type":"function"}],"evm":{"bytecode":{"linkReferences":{},"object":"608060405234801561001057600080fd5b5060005b610100811015610067576000808261010081106100345761003361006d565b5b602091828204019190066101000a81548160ff021916908360ff160217905550808061005f906100d5565b915050610014565b5061011d565b7f4e487b7100000000000000000000000000000000000000000000000000000000600052603260045260246000fd5b7f4e487b7100000000000000000000000000000000000000000000000000000000600052601160045260246000fd5b6000819050919050565b60006100e0826100cb565b91507fffffffffffffffffffffffffffffffffffffffffffffffffffffffffffffffff82036101125761011161009c565b5b600182019050919050565b6106538061012c6000396000f3fe608060405234801561001057600080fd5b506004361061004b5760003560e01c80628a9eb41461005057806370d72d631461006c5780638a1dd1621461008a5780638da7f232146100ba575b600080fd5b61006a600480360381019061006591906102fb565b6100ea565b005b610074610177565b60405161008191906103fa565b60405180910390f35b6100a4600480360381019061009f9190610416565b6101ea565b6040516100b19190610465565b60405180910390f35b6100d460048036038101906100cf9190610480565b610238565b6040516100e191906104bc565b60405180910390f35b8060006010846100fa9190610506565b856101059190610548565b61010081106101175761011661057c565b5b602091828204019190066101000a81548160ff021916908360ff1602179055507f90e70ad13cbc4e7a9e0fcf741c13e5169a9380ec3f661bc10e70cf0a3ece41e783838360405161016a939291906105e6565b60405180910390a1505050565b61017f610263565b600061010080602002604051908101604052809291908261010080156101e0576020028201916000905b82829054906101000a900460ff1660ff16815260200190600101906020826000010492830192600103820291508084116101a95790505b5050505050905090565b6000806010836101fa9190610506565b846102059190610548565b61010081106102175761021661057c565b5b602091828204019190069054906101000a900460ff1660ff16905092915050565b600081610100811061024957600080fd5b60209182820401919006915054906101000a900460ff1681565b60405180612000016040528061010090602082028036833780820191505090505090565b600080fd5b6000819050919050565b61029f8161028c565b81146102aa57600080fd5b50565b6000813590506102bc81610296565b92915050565b600060ff82169050919050565b6102d8816102c2565b81146102e357600080fd5b50565b6000813590506102f5816102cf565b92915050565b60008060006060848603121561031457610313610287565b5b6000610322868287016102ad565b9350506020610333868287016102ad565b9250506040610344868287016102e6565b9150509250925092565b60006101009050919050565b600081905092915050565b6000819050919050565b610378816102c2565b82525050565b600061038a838361036f565b60208301905092915050565b6000602082019050919050565b6103ac8161034e565b6103b6818461035a565b92506103c182610365565b8060005b838110156103f25781516103d9878261037e565b96506103e483610396565b9250506001810190506103c5565b505050505050565b60006120008201905061041060008301846103a3565b92915050565b6000806040838503121561042d5761042c610287565b5b600061043b858286016102ad565b925050602061044c858286016102ad565b9150509250929050565b61045f8161028c565b82525050565b600060208201905061047a6000830184610456565b92915050565b60006020828403121561049657610495610287565b5b60006104a4848285016102ad565b91505092915050565b6104b6816102c2565b82525050565b60006020820190506104d160008301846104ad565b92915050565b7f4e487b7100000000000000000000000000000000000000000000000000000000600052601160045260246000fd5b60006105118261028c565b915061051c8361028c565b925082820261052a8161028c565b91508282048414831517610541576105406104d7565b5b5092915050565b60006105538261028c565b915061055e8361028c565b9250828201905080821115610576576105756104d7565b5b92915050565b7f4e487b7100000000000000000000000000000000000000000000000000000000600052603260045260246000fd5b6000819050919050565b60006105d06105cb6105c6846102c2565b6105ab565b61028c565b9050919050565b6105e0816105b5565b82525050565b60006060820190506105fb6000830186610456565b6106086020830185610456565b61061560408301846105d7565b94935050505056fea2646970667358221220f58027a9c586df3ab4af582ac329a7f94f0274e79f189848d03cc7695705c60664736f6c63430008120033","opcodes":"PUSH1 0x80 PUSH1 0x40 MSTORE CALLVALUE DUP1 ISZERO PUSH2 0x10 JUMPI PUSH1 0x0 DUP1 REVERT JUMPDEST POP PUSH1 0x0 JUMPDEST PUSH2 0x100 DUP2 LT ISZERO PUSH2 0x67 JUMPI PUSH1 0x0 DUP1 DUP3 PUSH2 0x100 DUP2 LT PUSH2 0x34 JUMPI PUSH2 0x33 PUSH2 0x6D JUMP JUMPDEST JUMPDEST PUSH1 0x20 SWAP2 DUP3 DUP3 DIV ADD SWAP2 SWAP1 MOD PUSH2 0x100 EXP DUP2 SLOAD DUP2 PUSH1 0xFF MUL NOT AND SWAP1 DUP4 PUSH1 0xFF AND MUL OR SWAP1 SSTORE POP DUP1 DUP1 PUSH2 0x5F SWAP1 PUSH2 0xD5 JUMP JUMPDEST SWAP2 POP POP PUSH2 0x14 JUMP JUMPDEST POP PUSH2 0x11D JUMP JUMPDEST PUSH32 0x4E487B7100000000000000000000000000000000000000000000000000000000 PUSH1 0x0 MSTORE PUSH1 0x32 PUSH1 0x4 MSTORE PUSH1 0x24 PUSH1 0x0 REVERT JUMPDEST PUSH32 0x4E487B7100000000000000000000000000000000000000000000000000000000 PUSH1 0x0 MSTORE PUSH1 0x11 PUSH1 0x4 MSTORE PUSH1 0x24 PUSH1 0x0 REVERT JUMPDEST PUSH1 0x0 DUP2 SWAP1 POP SWAP2 SWAP1 POP JUMP JUMPDEST PUSH1 0x0 PUSH2 0xE0 DUP3 PUSH2 0xCB JUMP JUMPDEST SWAP2 POP PUSH32 0xFFFFFFFFFFFFFFFFFFFFFFFFFFFFFFFFFFFFFFFFFFFFFFFFFFFFFFFFFFFFFFFF DUP3 SUB PUSH2 0x112 JUMPI PUSH2 0x111 PUSH2 0x9C JUMP JUMPDEST JUMPDEST PUSH1 0x1 DUP3 ADD SWAP1 POP SWAP2 SWAP1 POP JUMP JUMPDEST PUSH2 0x653 DUP1 PUSH2 0x12C PUSH1 0x0 CODECOPY PUSH1 0x0 RETURN INVALID PUSH1 0x80 PUSH1 0x40 MSTORE CALLVALUE DUP1 ISZERO PUSH2 0x10 JUMPI PUSH1 0x0 DUP1 REVERT JUMPDEST POP PUSH1 0x4 CALLDATASIZE LT PUSH2 0x4B JUMPI PUSH1 0x0 CALLDATALOAD PUSH1 0xE0 SHR DUP1 PUSH3 0x8A9EB4 EQ PUSH2 0x50 JUMPI DUP1 PUSH4 0x70D72D63 EQ PUSH2 0x6C JUMPI DUP1 PUSH4 0x8A1DD162 EQ PUSH2 0x8A JUMPI DUP1 PUSH4 0x8DA7F232 EQ PUSH2 0xBA JUMPI JUMPDEST PUSH1 0x0 DUP1 REVERT JUMPDEST PUSH2 0x6A PUSH1 0x4 DUP1 CALLDATASIZE SUB DUP2 ADD SWAP1 PUSH2 0x65 SWAP2 SWAP1 PUSH2 0x2FB JUMP JUMPDEST PUSH2 0xEA JUMP JUMPDEST STOP JUMPDEST PUSH2 0x74 PUSH2 0x177 JUMP JUMPDEST PUSH1 0x40 MLOAD PUSH2 0x81 SWAP2 SWAP1 PUSH2 0x3FA JUMP JUMPDEST PUSH1 0x40 MLOAD DUP1 SWAP2 SUB SWAP1 RETURN JUMPDEST PUSH2 0xA4 PUSH1 0x4 DUP1 CALLDATASIZE SUB DUP2 ADD SWAP1 PUSH2 0x9F SWAP2 SWAP1 PUSH2 0x416 JUMP JUMPDEST PUSH2 0x1EA JUMP JUMPDEST PUSH1 0x40 MLOAD PUSH2 0xB1 SWAP2 SWAP1 PUSH2 0x465 JUMP JUMPDEST PUSH1 0x40 MLOAD DUP1 SWAP2 SUB SWAP1 RETURN JUMPDEST PUSH2 0xD4 PUSH1 0x4 DUP1 CALLDATASIZE SUB DUP2 ADD SWAP1 PUSH2 0xCF SWAP2 SWAP1 PUSH2 0x480 JUMP JUMPDEST PUSH2 0x238 JUMP JUMPDEST PUSH1 0x40 MLOAD PUSH2 0xE1 SWAP2 SWAP1 PUSH2 0x4BC JUMP JUMPDEST PUSH1 0x40 MLOAD DUP1 SWAP2 SUB SWAP1 RETURN JUMPDEST DUP1 PUSH1 0x0 PUSH1 0x10 DUP5 PUSH2 0xFA SWAP2 SWAP1 PUSH2 0x506 JUMP JUMPDEST DUP6 PUSH2 0x105 SWAP2 SWAP1 PUSH2 0x548 JUMP JUMPDEST PUSH2 0x100 DUP2 LT PUSH2 0x117 JUMPI PUSH2 0x116 PUSH2 0x57C JUMP JUMPDEST JUMPDEST PUSH1 0x20 SWAP2 DUP3 DUP3 DIV ADD SWAP2 SWAP1 MOD PUSH2 0x100 EXP DUP2 SLOAD DUP2 PUSH1 0xFF MUL NOT AND SWAP1 DUP4 PUSH1 0xFF AND MUL OR SWAP1 SSTORE POP PUSH32 0x90E70AD13CBC4E7A9E0FCF741C13E5169A9380EC3F661BC10E70CF0A3ECE41E7 DUP4 DUP4 DUP4 PUSH1 0x40 MLOAD PUSH2 0x16A SWAP4 SWAP3 SWAP2 SWAP1 PUSH2 0x5E6 JUMP JUMPDEST PUSH1 0x40 MLOAD DUP1 SWAP2 SUB SWAP1 LOG1 POP POP POP JUMP JUMPDEST PUSH2 0x17F PUSH2 0x263 JUMP JUMPDEST PUSH1 0x0 PUSH2 0x100 DUP1 PUSH1 0x20 MUL PUSH1 0x40 MLOAD SWAP1 DUP2 ADD PUSH1 0x40 MSTORE DUP1 SWAP3 SWAP2 SWAP1 DUP3 PUSH2 0x100 DUP1 ISZERO PUSH2 0x1E0 JUMPI PUSH1 0x20 MUL DUP3 ADD SWAP2 PUSH1 0x0 SWAP1 JUMPDEST DUP3 DUP3 SWAP1 SLOAD SWAP1 PUSH2 0x100 EXP SWAP1 DIV PUSH1 0xFF AND PUSH1 0xFF AND DUP2 MSTORE PUSH1 0x20 ADD SWAP1 PUSH1 0x1 ADD SWAP1 PUSH1 0x20 DUP3 PUSH1 0x0 ADD DIV SWAP3 DUP4 ADD SWAP3 PUSH1 0x1 SUB DUP3 MUL SWAP2 POP DUP1 DUP5 GT PUSH2 0x1A9 JUMPI SWAP1 POP JUMPDEST POP POP POP POP POP SWAP1 POP SWAP1 JUMP JUMPDEST PUSH1 0x0 DUP1 PUSH1 0x10 DUP4 PUSH2 0x1FA SWAP2 SWAP1 PUSH2 0x506 JUMP JUMPDEST DUP5 PUSH2 0x205 SWAP2 SWAP1 PUSH2 0x548 JUMP JUMPDEST PUSH2 0x100 DUP2 LT PUSH2 0x217 JUMPI PUSH2 0x216 PUSH2 0x57C JUMP JUMPDEST JUMPDEST PUSH1 0x20 SWAP2 DUP3 DUP3 DIV ADD SWAP2 SWAP1 MOD SWAP1 SLOAD SWAP1 PUSH2 0x100 EXP SWAP1 DIV PUSH1 0xFF AND PUSH1 0xFF AND SWAP1 POP SWAP3 SWAP2 POP POP JUMP JUMPDEST PUSH1 0x0 DUP2 PUSH2 0x100 DUP2 LT PUSH2 0x249 JUMPI PUSH1 0x0 DUP1 REVERT JUMPDEST PUSH1 0x20 SWAP2 DUP3 DUP3 DIV ADD SWAP2 SWAP1 MOD SWAP2 POP SLOAD SWAP1 PUSH2 0x100 EXP SWAP1 DIV PUSH1 0xFF AND DUP2 JUMP JUMPDEST PUSH1 0x40 MLOAD DUP1 PUSH2 0x2000 ADD PUSH1 0x40 MSTORE DUP1 PUSH2 0x100 SWAP1 PUSH1 0x20 DUP3 MUL DUP1 CALLDATASIZE DUP4 CALLDATACOPY DUP1 DUP3 ADD SWAP2 POP POP SWAP1 POP POP SWAP1 JUMP JUMPDEST PUSH1 0x0 DUP1 REVERT JUMPDEST PUSH1 0x0 DUP2 SWAP1 POP SWAP2 SWAP1 POP JUMP JUMPDEST PUSH2 0x29F DUP2 PUSH2 0x28C JUMP JUMPDEST DUP2 EQ PUSH2 0x2AA JUMPI PUSH1 0x0 DUP1 REVERT JUMPDEST POP JUMP JUMPDEST PUSH1 0x0 DUP2 CALLDATALOAD SWAP1 POP PUSH2 0x2BC DUP2 PUSH2 0x296 JUMP JUMPDEST SWAP3 SWAP2 POP POP JUMP JUMPDEST PUSH1 0x0 PUSH1 0xFF DUP3 AND SWAP1 POP SWAP2 SWAP1 POP JUMP JUMPDEST PUSH2 0x2D8 DUP2 PUSH2 0x2C2 JUMP JUMPDEST DUP2 EQ PUSH2 0x2E3 JUMPI PUSH1 0x0 DUP1 REVERT JUMPDEST POP JUMP JUMPDEST PUSH1 0x0 DUP2 CALLDATALOAD SWAP1 POP PUSH2 0x2F5 DUP2 PUSH2 0x2CF JUMP JUMPDEST SWAP3 SWAP2 POP POP JUMP JUMPDEST PUSH1 0x0 DUP1 PUSH1 0x0 PUSH1 0x60 DUP5 DUP7 SUB SLT ISZERO PUSH2 0x314 JUMPI PUSH2 0x313 PUSH2 0x287 JUMP JUMPDEST JUMPDEST PUSH1 0x0 PUSH2 0x322 DUP7 DUP3 DUP8 ADD PUSH2 0x2AD JUMP JUMPDEST SWAP4 POP POP PUSH1 0x20 PUSH2 0x333 DUP7 DUP3 DUP8 ADD PUSH2 0x2AD JUMP JUMPDEST SWAP3 POP POP PUSH1 0x40 PUSH2 0x344 DUP7 DUP3 DUP8 ADD PUSH2 0x2E6 JUMP JUMPDEST SWAP2 POP POP SWAP3 POP SWAP3 POP SWAP3 JUMP JUMPDEST PUSH1 0x0 PUSH2 0x100 SWAP1 POP SWAP2 SWAP1 POP JUMP JUMPDEST PUSH1 0x0 DUP2 SWAP1 POP SWAP3 SWAP2 POP POP JUMP JUMPDEST PUSH1 0x0 DUP2 SWAP1 POP SWAP2 SWAP1 POP JUMP JUMPDEST PUSH2 0x378 DUP2 PUSH2 0x2C2 JUMP JUMPDEST DUP3 MSTORE POP POP JUMP JUMPDEST PUSH1 0x0 PUSH2 0x38A DUP4 DUP4 PUSH2 0x36F JUMP JUMPDEST PUSH1 0x20 DUP4 ADD SWAP1 POP SWAP3 SWAP2 POP POP JUMP JUMPDEST PUSH1 0x0 PUSH1 0x20 DUP3 ADD SWAP1 POP SWAP2 SWAP1 POP JUMP JUMPDEST PUSH2 0x3AC DUP2 PUSH2 0x34E JUMP JUMPDEST PUSH2 0x3B6 DUP2 DUP5 PUSH2 0x35A JUMP JUMPDEST SWAP3 POP PUSH2 0x3C1 DUP3 PUSH2 0x365 JUMP JUMPDEST DUP1 PUSH1 0x0 JUMPDEST DUP4 DUP2 LT ISZERO PUSH2 0x3F2 JUMPI DUP2 MLOAD PUSH2 0x3D9 DUP8 DUP3 PUSH2 0x37E JUMP JUMPDEST SWAP7 POP PUSH2 0x3E4 DUP4 PUSH2 0x396 JUMP JUMPDEST SWAP3 POP POP PUSH1 0x1 DUP2 ADD SWAP1 POP PUSH2 0x3C5 JUMP JUMPDEST POP POP POP POP POP POP JUMP JUMPDEST PUSH1 0x0 PUSH2 0x2000 DUP3 ADD SWAP1 POP PUSH2 0x410 PUSH1 0x0 DUP4 ADD DUP5 PUSH2 0x3A3 JUMP JUMPDEST SWAP3 SWAP2 POP POP JUMP JUMPDEST PUSH1 0x0 DUP1 PUSH1 0x40 DUP4 DUP6 SUB SLT ISZERO PUSH2 0x42D JUMPI PUSH2 0x42C PUSH2 0x287 JUMP JUMPDEST JUMPDEST PUSH1 0x0 PUSH2 0x43B DUP6 DUP3 DUP7 ADD PUSH2 0x2AD JUMP JUMPDEST SWAP3 POP POP PUSH1 0x20 PUSH2 0x44C DUP6 DUP3 DUP7 ADD PUSH2 0x2AD JUMP JUMPDEST SWAP2 POP POP SWAP3 POP SWAP3 SWAP1 POP JUMP JUMPDEST PUSH2 0x45F DUP2 PUSH2 0x28C JUMP JUMPDEST DUP3 MSTORE POP POP JUMP JUMPDEST PUSH1 0x0 PUSH1 0x20 DUP3 ADD SWAP1 POP PUSH2 0x47A PUSH1 0x0 DUP4 ADD DUP5 PUSH2 0x456 JUMP JUMPDEST SWAP3 SWAP2 POP POP JUMP JUMPDEST PUSH1 0x0 PUSH1 0x20 DUP3 DUP5 SUB SLT ISZERO PUSH2 0x496 JUMPI PUSH2 0x495 PUSH2 0x287 JUMP JUMPDEST JUMPDEST PUSH1 0x0 PUSH2 0x4A4 DUP5 DUP3 DUP6 ADD PUSH2 0x2AD JUMP JUMPDEST SWAP2 POP POP SWAP3 SWAP2 POP POP JUMP JUMPDEST PUSH2 0x4B6 DUP2 PUSH2 0x2C2 JUMP JUMPDEST DUP3 MSTORE POP POP JUMP JUMPDEST PUSH1 0x0 PUSH1 0x20 DUP3 ADD SWAP1 POP PUSH2 0x4D1 PUSH1 0x0 DUP4 ADD DUP5 PUSH2 0x4AD JUMP JUMPDEST SWAP3 SWAP2 POP POP JUMP JUMPDEST PUSH32 0x4E487B7100000000000000000000000000000000000000000000000000000000 PUSH1 0x0 MSTORE PUSH1 0x11 PUSH1 0x4 MSTORE PUSH1 0x24 PUSH1 0x0 REVERT JUMPDEST PUSH1 0x0 PUSH2 0x511 DUP3 PUSH2 0x28C JUMP JUMPDEST SWAP2 POP PUSH2 0x51C DUP4 PUSH2 0x28C JUMP JUMPDEST SWAP3 POP DUP3 DUP3 MUL PUSH2 0x52A DUP2 PUSH2 0x28C JUMP JUMPDEST SWAP2 POP DUP3 DUP3 DIV DUP5 EQ DUP4 ISZERO OR PUSH2 0x541 JUMPI PUSH2 0x540 PUSH2 0x4D7 JUMP JUMPDEST JUMPDEST POP SWAP3 SWAP2 POP POP JUMP JUMPDEST PUSH1 0x0 PUSH2 0x553 DUP3 PUSH2 0x28C JUMP JUMPDEST SWAP2 POP PUSH2 0x55E DUP4 PUSH2 0x28C JUMP JUMPDEST SWAP3 POP DUP3 DUP3 ADD SWAP1 POP DUP1 DUP3 GT ISZERO PUSH2 0x576 JUMPI PUSH2 0x575 PUSH2 0x4D7 JUMP JUMPDEST JUMPDEST SWAP3 SWAP2 POP POP JUMP JUMPDEST PUSH32 0x4E487B7100000000000000000000000000000000000000000000000000000000 PUSH1 0x0 MSTORE PUSH1 0x32 PUSH1 0x4 MSTORE PUSH1 0x24 PUSH1 0x0 REVERT JUMPDEST PUSH1 0x0 DUP2 SWAP1 POP SWAP2 SWAP1 POP JUMP JUMPDEST PUSH1 0x0 PUSH2 0x5D0 PUSH2 0x5CB PUSH2 0x5C6 DUP5 PUSH2 0x2C2 JUMP JUMPDEST PUSH2 0x5AB JUMP JUMPDEST PUSH2 0x28C JUMP JUMPDEST SWAP1 POP SWAP2 SWAP1 POP JUMP JUMPDEST PUSH2 0x5E0 DUP2 PUSH2 0x5B5 JUMP JUMPDEST DUP3 MSTORE POP POP JUMP JUMPDEST PUSH1 0x0 PUSH1 0x60 DUP3 ADD SWAP1 POP PUSH2 0x5FB PUSH1 0x0 DUP4 ADD DUP7 PUSH2 0x456 JUMP JUMPDEST PUSH2 0x608 PUSH1 0x20 DUP4 ADD DUP6 PUSH2 0x456 JUMP JUMPDEST PUSH2 0x615 PUSH1 0x40 DUP4 ADD DUP5 PUSH2 0x5D7 JUMP JUMPDEST SWAP5 SWAP4 POP POP POP POP JUMP INVALID LOG2 PUSH5 0x6970667358 0x22 SLT KECCAK256 CREATE2 DUP1 0x27 0xA9 0xC5 DUP7 0xDF GASPRICE 0xB4 0xAF PC 0x2A 0xC3 0x29 0xA7 0xF9 0x4F MUL PUSH21 0xE79F189848D03CC7695705C60664736F6C63430008 SLT STOP CALLER "},"methodIdentifiers":{"getAllPixels()":"70d72d63","getPixel(uint256,uint256)":"8a1dd162","pixels(uint256)":"8da7f232","setPixel(uint256,uint256,uint8)":"008a9eb4"}}}}}