{"contracts/Controller.sol":{"Controller":{"abi":[{"inputs":[],"stateMutability":"nonpayable","type":"constructor"},{"anonymous":false,"inputs":[{"indexed":false,"internalType":"uint256","name":"x","type":"uint256"},{"indexed":false,"internalType":"uint256","name":"y","type":"uint256"},{"indexed":false,"internalType":"uint256","name":"color","type":"uint256"}],"name":"PixelChanged","type":"event"},{"inputs":[],"name":"getAllPixels","outputs":[{"internalType":"uint256[256]","name":"","type":"uint256[256]"}],"stateMutability":"view","type":"function"},{"inputs":[{"internalType":"uint256","name":"x","type":"uint256"},{"internalType":"uint256","name":"y","type":"uint256"}],"name":"getPixel","outputs":[{"internalType":"uint256","name":"","type":"uint256"}],"stateMutability":"view","type":"function"},{"inputs":[{"internalType":"uint256","name":"","type":"uint256"}],"name":"pixels","outputs":[{"internalType":"uint256","name":"","type":"uint256"}],"stateMutability":"view","type":"function"},{"inputs":[{"internalType":"uint256","name":"x","type":"uint256"},{"internalType":"uint256","name":"y","type":"uint256"},{"internalType":"uint256","name":"color","type":"uint256"}],"name":"setPixel","outputs":[],"stateMutability":"nonpayable","type":"function"}],"evm":{"bytecode":{"linkReferences":{},"object":"608060405234801561001057600080fd5b5060005b61010081101561004c5760008082610100811061003457610033610052565b5b01819055508080610044906100ba565b915050610014565b50610102565b7f4e487b7100000000000000000000000000000000000000000000000000000000600052603260045260246000fd5b7f4e487b7100000000000000000000000000000000000000000000000000000000600052601160045260246000fd5b6000819050919050565b60006100c5826100b0565b91507fffffffffffffffffffffffffffffffffffffffffffffffffffffffffffffffff82036100f7576100f6610081565b5b600182019050919050565b61054f806101116000396000f3fe608060405234801561001057600080fd5b506004361061004c5760003560e01c806370d72d63146100515780638a1dd1621461006f5780638da7f2321461009f578063aef02e76146100cf575b600080fd5b6100596100eb565b60405161006691906102d7565b60405180910390f35b61008960048036038101906100849190610324565b610138565b6040516100969190610373565b60405180910390f35b6100b960048036038101906100b4919061038e565b61016f565b6040516100c69190610373565b60405180910390f35b6100e960048036038101906100e491906103bb565b61018b565b005b6100f36101fd565b6000610100806020026040519081016040528092919082610100801561012e576020028201915b81548152602001906001019080831161011a575b5050505050905090565b600080601083610148919061043d565b84610153919061047f565b6101008110610165576101646104b3565b5b0154905092915050565b600081610100811061018057600080fd5b016000915090505481565b80600060108461019b919061043d565b856101a6919061047f565b61010081106101b8576101b76104b3565b5b01819055507f90e70ad13cbc4e7a9e0fcf741c13e5169a9380ec3f661bc10e70cf0a3ece41e78383836040516101f0939291906104e2565b60405180910390a1505050565b60405180612000016040528061010090602082028036833780820191505090505090565b60006101009050919050565b600081905092915050565b6000819050919050565b6000819050919050565b61025581610242565b82525050565b6000610267838361024c565b60208301905092915050565b6000602082019050919050565b61028981610221565b610293818461022d565b925061029e82610238565b8060005b838110156102cf5781516102b6878261025b565b96506102c183610273565b9250506001810190506102a2565b505050505050565b6000612000820190506102ed6000830184610280565b92915050565b600080fd5b61030181610242565b811461030c57600080fd5b50565b60008135905061031e816102f8565b92915050565b6000806040838503121561033b5761033a6102f3565b5b60006103498582860161030f565b925050602061035a8582860161030f565b9150509250929050565b61036d81610242565b82525050565b60006020820190506103886000830184610364565b92915050565b6000602082840312156103a4576103a36102f3565b5b60006103b28482850161030f565b91505092915050565b6000806000606084860312156103d4576103d36102f3565b5b60006103e28682870161030f565b93505060206103f38682870161030f565b92505060406104048682870161030f565b9150509250925092565b7f4e487b7100000000000000000000000000000000000000000000000000000000600052601160045260246000fd5b600061044882610242565b915061045383610242565b925082820261046181610242565b915082820484148315176104785761047761040e565b5b5092915050565b600061048a82610242565b915061049583610242565b92508282019050808211156104ad576104ac61040e565b5b92915050565b7f4e487b7100000000000000000000000000000000000000000000000000000000600052603260045260246000fd5b60006060820190506104f76000830186610364565b6105046020830185610364565b6105116040830184610364565b94935050505056fea26469706673582212200d24fcae11328d3ec9bc72c53e9bd8fcb6fdecfe8dab4a79cac7c23a1b3c184964736f6c63430008120033","opcodes":"PUSH1 0x80 PUSH1 0x40 MSTORE CALLVALUE DUP1 ISZERO PUSH2 0x10 JUMPI PUSH1 0x0 DUP1 REVERT JUMPDEST POP PUSH1 0x0 JUMPDEST PUSH2 0x100 DUP2 LT ISZERO PUSH2 0x4C JUMPI PUSH1 0x0 DUP1 DUP3 PUSH2 0x100 DUP2 LT PUSH2 0x34 JUMPI PUSH2 0x33 PUSH2 0x52 JUMP JUMPDEST JUMPDEST ADD DUP2 SWAP1 SSTORE POP DUP1 DUP1 PUSH2 0x44 SWAP1 PUSH2 0xBA JUMP JUMPDEST SWAP2 POP POP PUSH2 0x14 JUMP JUMPDEST POP PUSH2 0x102 JUMP JUMPDEST PUSH32 0x4E487B7100000000000000000000000000000000000000000000000000000000 PUSH1 0x0 MSTORE PUSH1 0x32 PUSH1 0x4 MSTORE PUSH1 0x24 PUSH1 0x0 REVERT JUMPDEST PUSH32 0x4E487B7100000000000000000000000000000000000000000000000000000000 PUSH1 0x0 MSTORE PUSH1 0x11 PUSH1 0x4 MSTORE PUSH1 0x24 PUSH1 0x0 REVERT JUMPDEST PUSH1 0x0 DUP2 SWAP1 POP SWAP2 SWAP1 POP JUMP JUMPDEST PUSH1 0x0 PUSH2 0xC5 DUP3 PUSH2 0xB0 JUMP JUMPDEST SWAP2 POP PUSH32 0xFFFFFFFFFFFFFFFFFFFFFFFFFFFFFFFFFFFFFFFFFFFFFFFFFFFFFFFFFFFFFFFF DUP3 SUB PUSH2 0xF7 JUMPI PUSH2 0xF6 PUSH2 0x81 JUMP JUMPDEST JUMPDEST PUSH1 0x1 DUP3 ADD SWAP1 POP SWAP2 SWAP1 POP JUMP JUMPDEST PUSH2 0x54F DUP1 PUSH2 0x111 PUSH1 0x0 CODECOPY PUSH1 0x0 RETURN INVALID PUSH1 0x80 PUSH1 0x40 MSTORE CALLVALUE DUP1 ISZERO PUSH2 0x10 JUMPI PUSH1 0x0 DUP1 REVERT JUMPDEST POP PUSH1 0x4 CALLDATASIZE LT PUSH2 0x4C JUMPI PUSH1 0x0 CALLDATALOAD PUSH1 0xE0 SHR DUP1 PUSH4 0x70D72D63 EQ PUSH2 0x51 JUMPI DUP1 PUSH4 0x8A1DD162 EQ PUSH2 0x6F JUMPI DUP1 PUSH4 0x8DA7F232 EQ PUSH2 0x9F JUMPI DUP1 PUSH4 0xAEF02E76 EQ PUSH2 0xCF JUMPI JUMPDEST PUSH1 0x0 DUP1 REVERT JUMPDEST PUSH2 0x59 PUSH2 0xEB JUMP JUMPDEST PUSH1 0x40 MLOAD PUSH2 0x66 SWAP2 SWAP1 PUSH2 0x2D7 JUMP JUMPDEST PUSH1 0x40 MLOAD DUP1 SWAP2 SUB SWAP1 RETURN JUMPDEST PUSH2 0x89 PUSH1 0x4 DUP1 CALLDATASIZE SUB DUP2 ADD SWAP1 PUSH2 0x84 SWAP2 SWAP1 PUSH2 0x324 JUMP JUMPDEST PUSH2 0x138 JUMP JUMPDEST PUSH1 0x40 MLOAD PUSH2 0x96 SWAP2 SWAP1 PUSH2 0x373 JUMP JUMPDEST PUSH1 0x40 MLOAD DUP1 SWAP2 SUB SWAP1 RETURN JUMPDEST PUSH2 0xB9 PUSH1 0x4 DUP1 CALLDATASIZE SUB DUP2 ADD SWAP1 PUSH2 0xB4 SWAP2 SWAP1 PUSH2 0x38E JUMP JUMPDEST PUSH2 0x16F JUMP JUMPDEST PUSH1 0x40 MLOAD PUSH2 0xC6 SWAP2 SWAP1 PUSH2 0x373 JUMP JUMPDEST PUSH1 0x40 MLOAD DUP1 SWAP2 SUB SWAP1 RETURN JUMPDEST PUSH2 0xE9 PUSH1 0x4 DUP1 CALLDATASIZE SUB DUP2 ADD SWAP1 PUSH2 0xE4 SWAP2 SWAP1 PUSH2 0x3BB JUMP JUMPDEST PUSH2 0x18B JUMP JUMPDEST STOP JUMPDEST PUSH2 0xF3 PUSH2 0x1FD JUMP JUMPDEST PUSH1 0x0 PUSH2 0x100 DUP1 PUSH1 0x20 MUL PUSH1 0x40 MLOAD SWAP1 DUP2 ADD PUSH1 0x40 MSTORE DUP1 SWAP3 SWAP2 SWAP1 DUP3 PUSH2 0x100 DUP1 ISZERO PUSH2 0x12E JUMPI PUSH1 0x20 MUL DUP3 ADD SWAP2 JUMPDEST DUP2 SLOAD DUP2 MSTORE PUSH1 0x20 ADD SWAP1 PUSH1 0x1 ADD SWAP1 DUP1 DUP4 GT PUSH2 0x11A JUMPI JUMPDEST POP POP POP POP POP SWAP1 POP SWAP1 JUMP JUMPDEST PUSH1 0x0 DUP1 PUSH1 0x10 DUP4 PUSH2 0x148 SWAP2 SWAP1 PUSH2 0x43D JUMP JUMPDEST DUP5 PUSH2 0x153 SWAP2 SWAP1 PUSH2 0x47F JUMP JUMPDEST PUSH2 0x100 DUP2 LT PUSH2 0x165 JUMPI PUSH2 0x164 PUSH2 0x4B3 JUMP JUMPDEST JUMPDEST ADD SLOAD SWAP1 POP SWAP3 SWAP2 POP POP JUMP JUMPDEST PUSH1 0x0 DUP2 PUSH2 0x100 DUP2 LT PUSH2 0x180 JUMPI PUSH1 0x0 DUP1 REVERT JUMPDEST ADD PUSH1 0x0 SWAP2 POP SWAP1 POP SLOAD DUP2 JUMP JUMPDEST DUP1 PUSH1 0x0 PUSH1 0x10 DUP5 PUSH2 0x19B SWAP2 SWAP1 PUSH2 0x43D JUMP JUMPDEST DUP6 PUSH2 0x1A6 SWAP2 SWAP1 PUSH2 0x47F JUMP JUMPDEST PUSH2 0x100 DUP2 LT PUSH2 0x1B8 JUMPI PUSH2 0x1B7 PUSH2 0x4B3 JUMP JUMPDEST JUMPDEST ADD DUP2 SWAP1 SSTORE POP PUSH32 0x90E70AD13CBC4E7A9E0FCF741C13E5169A9380EC3F661BC10E70CF0A3ECE41E7 DUP4 DUP4 DUP4 PUSH1 0x40 MLOAD PUSH2 0x1F0 SWAP4 SWAP3 SWAP2 SWAP1 PUSH2 0x4E2 JUMP JUMPDEST PUSH1 0x40 MLOAD DUP1 SWAP2 SUB SWAP1 LOG1 POP POP POP JUMP JUMPDEST PUSH1 0x40 MLOAD DUP1 PUSH2 0x2000 ADD PUSH1 0x40 MSTORE DUP1 PUSH2 0x100 SWAP1 PUSH1 0x20 DUP3 MUL DUP1 CALLDATASIZE DUP4 CALLDATACOPY DUP1 DUP3 ADD SWAP2 POP POP SWAP1 POP POP SWAP1 JUMP JUMPDEST PUSH1 0x0 PUSH2 0x100 SWAP1 POP SWAP2 SWAP1 POP JUMP JUMPDEST PUSH1 0x0 DUP2 SWAP1 POP SWAP3 SWAP2 POP POP JUMP JUMPDEST PUSH1 0x0 DUP2 SWAP1 POP SWAP2 SWAP1 POP JUMP JUMPDEST PUSH1 0x0 DUP2 SWAP1 POP SWAP2 SWAP1 POP JUMP JUMPDEST PUSH2 0x255 DUP2 PUSH2 0x242 JUMP JUMPDEST DUP3 MSTORE POP POP JUMP JUMPDEST PUSH1 0x0 PUSH2 0x267 DUP4 DUP4 PUSH2 0x24C JUMP JUMPDEST PUSH1 0x20 DUP4 ADD SWAP1 POP SWAP3 SWAP2 POP POP JUMP JUMPDEST PUSH1 0x0 PUSH1 0x20 DUP3 ADD SWAP1 POP SWAP2 SWAP1 POP JUMP JUMPDEST PUSH2 0x289 DUP2 PUSH2 0x221 JUMP JUMPDEST PUSH2 0x293 DUP2 DUP5 PUSH2 0x22D JUMP JUMPDEST SWAP3 POP PUSH2 0x29E DUP3 PUSH2 0x238 JUMP JUMPDEST DUP1 PUSH1 0x0 JUMPDEST DUP4 DUP2 LT ISZERO PUSH2 0x2CF JUMPI DUP2 MLOAD PUSH2 0x2B6 DUP8 DUP3 PUSH2 0x25B JUMP JUMPDEST SWAP7 POP PUSH2 0x2C1 DUP4 PUSH2 0x273 JUMP JUMPDEST SWAP3 POP POP PUSH1 0x1 DUP2 ADD SWAP1 POP PUSH2 0x2A2 JUMP JUMPDEST POP POP POP POP POP POP JUMP JUMPDEST PUSH1 0x0 PUSH2 0x2000 DUP3 ADD SWAP1 POP PUSH2 0x2ED PUSH1 0x0 DUP4 ADD DUP5 PUSH2 0x280 JUMP JUMPDEST SWAP3 SWAP2 POP POP JUMP JUMPDEST PUSH1 0x0 DUP1 REVERT JUMPDEST PUSH2 0x301 DUP2 PUSH2 0x242 JUMP JUMPDEST DUP2 EQ PUSH2 0x30C JUMPI PUSH1 0x0 DUP1 REVERT JUMPDEST POP JUMP JUMPDEST PUSH1 0x0 DUP2 CALLDATALOAD SWAP1 POP PUSH2 0x31E DUP2 PUSH2 0x2F8 JUMP JUMPDEST SWAP3 SWAP2 POP POP JUMP JUMPDEST PUSH1 0x0 DUP1 PUSH1 0x40 DUP4 DUP6 SUB SLT ISZERO PUSH2 0x33B JUMPI PUSH2 0x33A PUSH2 0x2F3 JUMP JUMPDEST JUMPDEST PUSH1 0x0 PUSH2 0x349 DUP6 DUP3 DUP7 ADD PUSH2 0x30F JUMP JUMPDEST SWAP3 POP POP PUSH1 0x20 PUSH2 0x35A DUP6 DUP3 DUP7 ADD PUSH2 0x30F JUMP JUMPDEST SWAP2 POP POP SWAP3 POP SWAP3 SWAP1 POP JUMP JUMPDEST PUSH2 0x36D DUP2 PUSH2 0x242 JUMP JUMPDEST DUP3 MSTORE POP POP JUMP JUMPDEST PUSH1 0x0 PUSH1 0x20 DUP3 ADD SWAP1 POP PUSH2 0x388 PUSH1 0x0 DUP4 ADD DUP5 PUSH2 0x364 JUMP JUMPDEST SWAP3 SWAP2 POP POP JUMP JUMPDEST PUSH1 0x0 PUSH1 0x20 DUP3 DUP5 SUB SLT ISZERO PUSH2 0x3A4 JUMPI PUSH2 0x3A3 PUSH2 0x2F3 JUMP JUMPDEST JUMPDEST PUSH1 0x0 PUSH2 0x3B2 DUP5 DUP3 DUP6 ADD PUSH2 0x30F JUMP JUMPDEST SWAP2 POP POP SWAP3 SWAP2 POP POP JUMP JUMPDEST PUSH1 0x0 DUP1 PUSH1 0x0 PUSH1 0x60 DUP5 DUP7 SUB SLT ISZERO PUSH2 0x3D4 JUMPI PUSH2 0x3D3 PUSH2 0x2F3 JUMP JUMPDEST JUMPDEST PUSH1 0x0 PUSH2 0x3E2 DUP7 DUP3 DUP8 ADD PUSH2 0x30F JUMP JUMPDEST SWAP4 POP POP PUSH1 0x20 PUSH2 0x3F3 DUP7 DUP3 DUP8 ADD PUSH2 0x30F JUMP JUMPDEST SWAP3 POP POP PUSH1 0x40 PUSH2 0x404 DUP7 DUP3 DUP8 ADD PUSH2 0x30F JUMP JUMPDEST SWAP2 POP POP SWAP3 POP SWAP3 POP SWAP3 JUMP JUMPDEST PUSH32 0x4E487B7100000000000000000000000000000000000000000000000000000000 PUSH1 0x0 MSTORE PUSH1 0x11 PUSH1 0x4 MSTORE PUSH1 0x24 PUSH1 0x0 REVERT JUMPDEST PUSH1 0x0 PUSH2 0x448 DUP3 PUSH2 0x242 JUMP JUMPDEST SWAP2 POP PUSH2 0x453 DUP4 PUSH2 0x242 JUMP JUMPDEST SWAP3 POP DUP3 DUP3 MUL PUSH2 0x461 DUP2 PUSH2 0x242 JUMP JUMPDEST SWAP2 POP DUP3 DUP3 DIV DUP5 EQ DUP4 ISZERO OR PUSH2 0x478 JUMPI PUSH2 0x477 PUSH2 0x40E JUMP JUMPDEST JUMPDEST POP SWAP3 SWAP2 POP POP JUMP JUMPDEST PUSH1 0x0 PUSH2 0x48A DUP3 PUSH2 0x242 JUMP JUMPDEST SWAP2 POP PUSH2 0x495 DUP4 PUSH2 0x242 JUMP JUMPDEST SWAP3 POP DUP3 DUP3 ADD SWAP1 POP DUP1 DUP3 GT ISZERO PUSH2 0x4AD JUMPI PUSH2 0x4AC PUSH2 0x40E JUMP JUMPDEST JUMPDEST SWAP3 SWAP2 POP POP JUMP JUMPDEST PUSH32 0x4E487B7100000000000000000000000000000000000000000000000000000000 PUSH1 0x0 MSTORE PUSH1 0x32 PUSH1 0x4 MSTORE PUSH1 0x24 PUSH1 0x0 REVERT JUMPDEST PUSH1 0x0 PUSH1 0x60 DUP3 ADD SWAP1 POP PUSH2 0x4F7 PUSH1 0x0 DUP4 ADD DUP7 PUSH2 0x364 JUMP JUMPDEST PUSH2 0x504 PUSH1 0x20 DUP4 ADD DUP6 PUSH2 0x364 JUMP JUMPDEST PUSH2 0x511 PUSH1 0x40 DUP4 ADD DUP5 PUSH2 0x364 JUMP JUMPDEST SWAP5 SWAP4 POP POP POP POP JUMP INVALID LOG2 PUSH5 0x6970667358 0x22 SLT KECCAK256 0xD 0x24 0xFC 0xAE GT ORIGIN DUP14 RETURNDATACOPY 0xC9 0xBC PUSH19 0xC53E9BD8FCB6FDECFE8DAB4A79CAC7C23A1B3C XOR 0x49 PUSH5 0x736F6C6343 STOP ADDMOD SLT STOP CALLER "},"methodIdentifiers":{"getAllPixels()":"70d72d63","getPixel(uint256,uint256)":"8a1dd162","pixels(uint256)":"8da7f232","setPixel(uint256,uint256,uint256)":"aef02e76"}}}}}