{
  "_format": "hh-sol-artifact-1",
  "contractName": "Controller",
  "sourceName": "contracts/Controller.sol",
  "abi": [
    {
      "inputs": [],
      "stateMutability": "nonpayable",
      "type": "constructor"
    },
    {
      "anonymous": false,
      "inputs": [
        {
          "indexed": false,
          "internalType": "uint256",
          "name": "x",
          "type": "uint256"
        },
        {
          "indexed": false,
          "internalType": "uint256",
          "name": "y",
          "type": "uint256"
        },
        {
          "indexed": false,
          "internalType": "uint256",
          "name": "color",
          "type": "uint256"
        }
      ],
      "name": "PixelChanged",
      "type": "event"
    },
    {
      "inputs": [],
      "name": "getAllPixels",
      "outputs": [
        {
          "internalType": "uint256[256]",
          "name": "",
          "type": "uint256[256]"
        }
      ],
      "stateMutability": "view",
      "type": "function"
    },
    {
      "inputs": [
        {
          "internalType": "uint256",
          "name": "x",
          "type": "uint256"
        },
        {
          "internalType": "uint256",
          "name": "y",
          "type": "uint256"
        }
      ],
      "name": "getPixel",
      "outputs": [
        {
          "internalType": "uint256",
          "name": "",
          "type": "uint256"
        }
      ],
      "stateMutability": "view",
      "type": "function"
    },
    {
      "inputs": [
        {
          "internalType": "uint256",
          "name": "",
          "type": "uint256"
        }
      ],
      "name": "pixels",
      "outputs": [
        {
          "internalType": "uint256",
          "name": "",
          "type": "uint256"
        }
      ],
      "stateMutability": "view",
      "type": "function"
    },
    {
      "inputs": [
        {
          "internalType": "uint256",
          "name": "x",
          "type": "uint256"
        },
        {
          "internalType": "uint256",
          "name": "y",
          "type": "uint256"
        },
        {
          "internalType": "uint256",
          "name": "color",
          "type": "uint256"
        }
      ],
      "name": "setPixel",
      "outputs": [],
      "stateMutability": "nonpayable",
      "type": "function"
    }
  ],
  "bytecode": "0x608060405234801561001057600080fd5b5060005b61010081101561004c5760008082610100811061003457610033610052565b5b01819055508080610044906100ba565b915050610014565b50610102565b7f4e487b7100000000000000000000000000000000000000000000000000000000600052603260045260246000fd5b7f4e487b7100000000000000000000000000000000000000000000000000000000600052601160045260246000fd5b6000819050919050565b60006100c5826100b0565b91507fffffffffffffffffffffffffffffffffffffffffffffffffffffffffffffffff82036100f7576100f6610081565b5b600182019050919050565b61054f806101116000396000f3fe608060405234801561001057600080fd5b506004361061004c5760003560e01c806370d72d63146100515780638a1dd1621461006f5780638da7f2321461009f578063aef02e76146100cf575b600080fd5b6100596100eb565b60405161006691906102d7565b60405180910390f35b61008960048036038101906100849190610324565b610138565b6040516100969190610373565b60405180910390f35b6100b960048036038101906100b4919061038e565b61016f565b6040516100c69190610373565b60405180910390f35b6100e960048036038101906100e491906103bb565b61018b565b005b6100f36101fd565b6000610100806020026040519081016040528092919082610100801561012e576020028201915b81548152602001906001019080831161011a575b5050505050905090565b600080601083610148919061043d565b84610153919061047f565b6101008110610165576101646104b3565b5b0154905092915050565b600081610100811061018057600080fd5b016000915090505481565b80600060108461019b919061043d565b856101a6919061047f565b61010081106101b8576101b76104b3565b5b01819055507f90e70ad13cbc4e7a9e0fcf741c13e5169a9380ec3f661bc10e70cf0a3ece41e78383836040516101f0939291906104e2565b60405180910390a1505050565b60405180612000016040528061010090602082028036833780820191505090505090565b60006101009050919050565b600081905092915050565b6000819050919050565b6000819050919050565b61025581610242565b82525050565b6000610267838361024c565b60208301905092915050565b6000602082019050919050565b61028981610221565b610293818461022d565b925061029e82610238565b8060005b838110156102cf5781516102b6878261025b565b96506102c183610273565b9250506001810190506102a2565b505050505050565b6000612000820190506102ed6000830184610280565b92915050565b600080fd5b61030181610242565b811461030c57600080fd5b50565b60008135905061031e816102f8565b92915050565b6000806040838503121561033b5761033a6102f3565b5b60006103498582860161030f565b925050602061035a8582860161030f565b9150509250929050565b61036d81610242565b82525050565b60006020820190506103886000830184610364565b92915050565b6000602082840312156103a4576103a36102f3565b5b60006103b28482850161030f565b91505092915050565b6000806000606084860312156103d4576103d36102f3565b5b60006103e28682870161030f565b93505060206103f38682870161030f565b92505060406104048682870161030f565b9150509250925092565b7f4e487b7100000000000000000000000000000000000000000000000000000000600052601160045260246000fd5b600061044882610242565b915061045383610242565b925082820261046181610242565b915082820484148315176104785761047761040e565b5b5092915050565b600061048a82610242565b915061049583610242565b92508282019050808211156104ad576104ac61040e565b5b92915050565b7f4e487b7100000000000000000000000000000000000000000000000000000000600052603260045260246000fd5b60006060820190506104f76000830186610364565b6105046020830185610364565b6105116040830184610364565b94935050505056fea26469706673582212200d24fcae11328d3ec9bc72c53e9bd8fcb6fdecfe8dab4a79cac7c23a1b3c184964736f6c63430008120033",
  "linkReferences": {},
  "deployedLinkReferences": {}
}