{
  "_format": "hh-sol-artifact-1",
  "contractName": "Controller",
  "sourceName": "contracts/Controller.sol",
  "abi": [
    {
      "inputs": [],
      "stateMutability": "nonpayable",
      "type": "constructor"
    },
    {
      "anonymous": false,
      "inputs": [
        {
          "indexed": false,
          "internalType": "uint256",
          "name": "x",
          "type": "uint256"
        },
        {
          "indexed": false,
          "internalType": "uint256",
          "name": "y",
          "type": "uint256"
        },
        {
          "indexed": false,
          "internalType": "uint256",
          "name": "color",
          "type": "uint256"
        }
      ],
      "name": "PixelChanged",
      "type": "event"
    },
    {
      "inputs": [],
      "name": "getAllPixels",
      "outputs": [
        {
          "internalType": "uint8[256]",
          "name": "",
          "type": "uint8[256]"
        }
      ],
      "stateMutability": "view",
      "type": "function"
    },
    {
      "inputs": [
        {
          "internalType": "uint256",
          "name": "x",
          "type": "uint256"
        },
        {
          "internalType": "uint256",
          "name": "y",
          "type": "uint256"
        }
      ],
      "name": "getPixel",
      "outputs": [
        {
          "internalType": "uint256",
          "name": "",
          "type": "uint256"
        }
      ],
      "stateMutability": "view",
      "type": "function"
    },
    {
      "inputs": [
        {
          "internalType": "uint256",
          "name": "",
          "type": "uint256"
        }
      ],
      "name": "pixels",
      "outputs": [
        {
          "internalType": "uint8",
          "name": "",
          "type": "uint8"
        }
      ],
      "stateMutability": "view",
      "type": "function"
    },
    {
      "inputs": [
        {
          "internalType": "uint256",
          "name": "x",
          "type": "uint256"
        },
        {
          "internalType": "uint256",
          "name": "y",
          "type": "uint256"
        },
        {
          "internalType": "uint8",
          "name": "color",
          "type": "uint8"
        }
      ],
      "name": "setPixel",
      "outputs": [],
      "stateMutability": "nonpayable",
      "type": "function"
    }
  ],
  "bytecode": "0x608060405234801561001057600080fd5b5060005b610100811015610067576000808261010081106100345761003361006d565b5b602091828204019190066101000a81548160ff021916908360ff160217905550808061005f906100d5565b915050610014565b5061011d565b7f4e487b7100000000000000000000000000000000000000000000000000000000600052603260045260246000fd5b7f4e487b7100000000000000000000000000000000000000000000000000000000600052601160045260246000fd5b6000819050919050565b60006100e0826100cb565b91507fffffffffffffffffffffffffffffffffffffffffffffffffffffffffffffffff82036101125761011161009c565b5b600182019050919050565b6106538061012c6000396000f3fe608060405234801561001057600080fd5b506004361061004b5760003560e01c80628a9eb41461005057806370d72d631461006c5780638a1dd1621461008a5780638da7f232146100ba575b600080fd5b61006a600480360381019061006591906102fb565b6100ea565b005b610074610177565b60405161008191906103fa565b60405180910390f35b6100a4600480360381019061009f9190610416565b6101ea565b6040516100b19190610465565b60405180910390f35b6100d460048036038101906100cf9190610480565b610238565b6040516100e191906104bc565b60405180910390f35b8060006010846100fa9190610506565b856101059190610548565b61010081106101175761011661057c565b5b602091828204019190066101000a81548160ff021916908360ff1602179055507f90e70ad13cbc4e7a9e0fcf741c13e5169a9380ec3f661bc10e70cf0a3ece41e783838360405161016a939291906105e6565b60405180910390a1505050565b61017f610263565b600061010080602002604051908101604052809291908261010080156101e0576020028201916000905b82829054906101000a900460ff1660ff16815260200190600101906020826000010492830192600103820291508084116101a95790505b5050505050905090565b6000806010836101fa9190610506565b846102059190610548565b61010081106102175761021661057c565b5b602091828204019190069054906101000a900460ff1660ff16905092915050565b600081610100811061024957600080fd5b60209182820401919006915054906101000a900460ff1681565b60405180612000016040528061010090602082028036833780820191505090505090565b600080fd5b6000819050919050565b61029f8161028c565b81146102aa57600080fd5b50565b6000813590506102bc81610296565b92915050565b600060ff82169050919050565b6102d8816102c2565b81146102e357600080fd5b50565b6000813590506102f5816102cf565b92915050565b60008060006060848603121561031457610313610287565b5b6000610322868287016102ad565b9350506020610333868287016102ad565b9250506040610344868287016102e6565b9150509250925092565b60006101009050919050565b600081905092915050565b6000819050919050565b610378816102c2565b82525050565b600061038a838361036f565b60208301905092915050565b6000602082019050919050565b6103ac8161034e565b6103b6818461035a565b92506103c182610365565b8060005b838110156103f25781516103d9878261037e565b96506103e483610396565b9250506001810190506103c5565b505050505050565b60006120008201905061041060008301846103a3565b92915050565b6000806040838503121561042d5761042c610287565b5b600061043b858286016102ad565b925050602061044c858286016102ad565b9150509250929050565b61045f8161028c565b82525050565b600060208201905061047a6000830184610456565b92915050565b60006020828403121561049657610495610287565b5b60006104a4848285016102ad565b91505092915050565b6104b6816102c2565b82525050565b60006020820190506104d160008301846104ad565b92915050565b7f4e487b7100000000000000000000000000000000000000000000000000000000600052601160045260246000fd5b60006105118261028c565b915061051c8361028c565b925082820261052a8161028c565b91508282048414831517610541576105406104d7565b5b5092915050565b60006105538261028c565b915061055e8361028c565b9250828201905080821115610576576105756104d7565b5b92915050565b7f4e487b7100000000000000000000000000000000000000000000000000000000600052603260045260246000fd5b6000819050919050565b60006105d06105cb6105c6846102c2565b6105ab565b61028c565b9050919050565b6105e0816105b5565b82525050565b60006060820190506105fb6000830186610456565b6106086020830185610456565b61061560408301846105d7565b94935050505056fea2646970667358221220f58027a9c586df3ab4af582ac329a7f94f0274e79f189848d03cc7695705c60664736f6c63430008120033",
  "linkReferences": {},
  "deployedLinkReferences": {}
}